{
  "transactions": [
    {
      "hash": "0x4933e7f9d3799a3cf959e35850236212266b8845b75fd5f00e48bbe94d04b06d",
      "transactionType": "CALL",
      "contractName": "MockERC20",
      "contractAddress": "0x05ab19d77516414f7333a8fd52cc1f49ff8eafa9",
      "function": "approve(address,uint256)",
      "arguments": [
        "0x0A039085Ca2AD68a3FC77A9C5191C22B309126F8",
        "100000"
      ],
      "transaction": {
        "from": "0x1f53aa5d3b5743bd0d41884124bc07f4d7682fc1",
        "to": "0x05ab19d77516414f7333a8fd52cc1f49ff8eafa9",
        "gas": "0x10720",
        "value": "0x0",
        "input": "0x095ea7b30000000000000000000000000a039085ca2ad68a3fc77a9c5191c22b309126f800000000000000000000000000000000000000000000000000000000000186a0",
        "nonce": "0x2e",
        "chainId": "0x14a34"
      },
      "additionalContracts": [],
      "isFixedGasLimit": false
    },
    {
      "hash": "0xad5a2e89c9cb3e4bcbd0b735bd3535cd20f19b8241dbfc0f19aacb97fe93f734",
      "transactionType": "CALL",
      "contractName": null,
      "contractAddress": "0x0a039085ca2ad68a3fc77a9c5191c22b309126f8",
      "function": "addLiquidity(uint256)",
      "arguments": [
        "100000"
      ],
      "transaction": {
        "from": "0x1f53aa5d3b5743bd0d41884124bc07f4d7682fc1",
        "to": "0x0a039085ca2ad68a3fc77a9c5191c22b309126f8",
        "gas": "0x1b9fc",
        "value": "0x0",
        "input": "0x51c6590a00000000000000000000000000000000000000000000000000000000000186a0",
        "nonce": "0x2f",
        "chainId": "0x14a34"
      },
      "additionalContracts": [],
      "isFixedGasLimit": false
    }
  ],
  "receipts": [
    {
      "status": "0x1",
      "cumulativeGasUsed": "0x2a7c00",
      "logs": [
        {
          "address": "0x05ab19d77516414f7333a8fd52cc1f49ff8eafa9",
          "topics": [
            "0x8c5be1e5ebec7d5bd14f71427d1e84f3dd0314c0f7b2291e5b200ac8c7c3b925",
            "0x0000000000000000000000001f53aa5d3b5743bd0d41884124bc07f4d7682fc1",
            "0x0000000000000000000000000a039085ca2ad68a3fc77a9c5191c22b309126f8"
          ],
          "data": "0x00000000000000000000000000000000000000000000000000000000000186a0",
          "blockHash": "0x44a2e99c91933a209220576a45c32ebd1e686799959acb466f6a1b3744d50b95",
          "blockNumber": "0x1c40d85",
          "transactionHash": "0x4933e7f9d3799a3cf959e35850236212266b8845b75fd5f00e48bbe94d04b06d",
          "transactionIndex": "0x6",
          "logIndex": "0x2f",
          "removed": false
        }
      ],
      "logsBloom": "0x00000000000000000000000000000000000000000000000000000000800000000000000000000000000000000000000000000000000000000002000000200000000000000000000000000008000000000000000000000000000000000000000000000000000000000000000000000000000000400000000000000000000000000000000000000100000000000000000000000000000000000000000000000000020000000000000000000000000100000000000000000200000000000000000000000200000000000000000000000000000000000000000000800000000000000010000000000000000000000000000000000000000000000000000000000000",
      "type": "0x2",
      "transactionHash": "0x4933e7f9d3799a3cf959e35850236212266b8845b75fd5f00e48bbe94d04b06d",
      "transactionIndex": "0x6",
      "blockHash": "0x44a2e99c91933a209220576a45c32ebd1e686799959acb466f6a1b3744d50b95",
      "blockNumber": "0x1c40d85",
      "gasUsed": "0xb3eb",
      "effectiveGasPrice": "0xf4276",
      "from": "0x1f53aa5d3b5743bd0d41884124bc07f4d7682fc1",
      "to": "0x05ab19d77516414f7333a8fd52cc1f49ff8eafa9",
      "contractAddress": null,
      "l1BaseFeeScalar": "0x44d",
      "l1BlobBaseFee": "0xfac",
      "l1BlobBaseFeeScalar": "0xa118b",
      "l1Fee": "0x304f85",
      "l1GasPrice": "0x192197",
      "l1GasUsed": "0x640"
    },
    {
      "status": "0x1",
      "cumulativeGasUsed": "0x2bbbfe",
      "logs": [
        {
          "address": "0x05ab19d77516414f7333a8fd52cc1f49ff8eafa9",
          "topics": [
            "0xddf252ad1be2c89b69c2b068fc378daa952ba7f163c4a11628f55a4df523b3ef",
            "0x0000000000000000000000001f53aa5d3b5743bd0d41884124bc07f4d7682fc1",
            "0x0000000000000000000000000a039085ca2ad68a3fc77a9c5191c22b309126f8"
          ],
          "data": "0x00000000000000000000000000000000000000000000000000000000000186a0",
          "blockHash": "0x44a2e99c91933a209220576a45c32ebd1e686799959acb466f6a1b3744d50b95",
          "blockNumber": "0x1c40d85",
          "transactionHash": "0xad5a2e89c9cb3e4bcbd0b735bd3535cd20f19b8241dbfc0f19aacb97fe93f734",
          "transactionIndex": "0x7",
          "logIndex": "0x30",
          "removed": false
        },
        {
          "address": "0x0a039085ca2ad68a3fc77a9c5191c22b309126f8",
          "topics": [
            "0xfdb748c915e4e67b4bb23287bf4295a4595ce48b50343214369f72ccfb974cfa"
          ],
          "data": "0x00000000000000000000000000000000000000000000000000000000000186a0",
          "blockHash": "0x44a2e99c91933a209220576a45c32ebd1e686799959acb466f6a1b3744d50b95",
          "blockNumber": "0x1c40d85",
          "transactionHash": "0xad5a2e89c9cb3e4bcbd0b735bd3535cd20f19b8241dbfc0f19aacb97fe93f734",
          "transactionIndex": "0x7",
          "logIndex": "0x31",
          "removed": false
        }
      ],
      "logsBloom": "0x00000000000000000000000000000000000000000000000000000000800000000000000000000000000000000000000000000000000000000002000000000000000000000000000000000048000000000000000000000000000000000000000000000000000000000000000000000000000000400000000000000010000000000000000000000100000000000001000000000000000000000000000000000000000000000000000000000004000100000000000000000200000000000000000000000202400000000000000000000000000000000000000000800000000000000000000004000000000000000000000000000000000000002000000000000000",
      "type": "0x2",
      "transactionHash": "0xad5a2e89c9cb3e4bcbd0b735bd3535cd20f19b8241dbfc0f19aacb97fe93f734",
      "transactionIndex": "0x7",
      "blockHash": "0x44a2e99c91933a209220576a45c32ebd1e686799959acb466f6a1b3744d50b95",
      "blockNumber": "0x1c40d85",
      "gasUsed": "0x13ffe",
      "effectiveGasPrice": "0xf4276",
      "from": "0x1f53aa5d3b5743bd0d41884124bc07f4d7682fc1",
      "to": "0x0a039085ca2ad68a3fc77a9c5191c22b309126f8",
      "contractAddress": null,
      "l1BaseFeeScalar": "0x44d",
      "l1BlobBaseFee": "0xfac",
      "l1BlobBaseFeeScalar": "0xa118b",
      "l1Fee": "0x304f85",
      "l1GasPrice": "0x192197",
      "l1GasUsed": "0x640"
    }
  ],
  "libraries": [],
  "pending": [],
  "returns": {},
  "timestamp": 1755019754,
  "chain": 84532,
  "commit": "bd0f638"
}