{
  "transactions": [
    {
      "hash": "0x0e12747ab207188b6f81a6cfbf1090b673f0fe0d74e321b5f1adf643868caa4c",
      "transactionType": "CALL",
      "contractName": "MockERC20",
      "contractAddress": "0x05ab19d77516414f7333a8fd52cc1f49ff8eafa9",
      "function": "mint(address,uint256)",
      "arguments": [
        "0x1f53aA5d3b5743BD0D41884124bC07f4d7682Fc1",
        "1000000000"
      ],
      "transaction": {
        "from": "0x1f53aa5d3b5743bd0d41884124bc07f4d7682fc1",
        "to": "0x05ab19d77516414f7333a8fd52cc1f49ff8eafa9",
        "gas": "0x11382",
        "value": "0x0",
        "input": "0x40c10f190000000000000000000000001f53aa5d3b5743bd0d41884124bc07f4d7682fc1000000000000000000000000000000000000000000000000000000003b9aca00",
        "nonce": "0x16",
        "chainId": "0x14a34"
      },
      "additionalContracts": [],
      "isFixedGasLimit": false
    },
    {
      "hash": "0x581a02fb3da73efff1613b6b31435946e3b4ad5ed46ea2a0e507551b84260c0b",
      "transactionType": "CALL",
      "contractName": "MockERC20",
      "contractAddress": "0x05ab19d77516414f7333a8fd52cc1f49ff8eafa9",
      "function": "transfer(address,uint256)",
      "arguments": [
        "0x740907524EbD6A481a81cE76B5115A4cDDb80099",
        "1000000000"
      ],
      "transaction": {
        "from": "0x1f53aa5d3b5743bd0d41884124bc07f4d7682fc1",
        "to": "0x05ab19d77516414f7333a8fd52cc1f49ff8eafa9",
        "gas": "0xf9c7",
        "value": "0x0",
        "input": "0xa9059cbb000000000000000000000000740907524ebd6a481a81ce76b5115a4cddb80099000000000000000000000000000000000000000000000000000000003b9aca00",
        "nonce": "0x17",
        "chainId": "0x14a34"
      },
      "additionalContracts": [],
      "isFixedGasLimit": false
    }
  ],
  "receipts": [
    {
      "status": "0x1",
      "cumulativeGasUsed": "0x36f23f",
      "logs": [
        {
          "address": "0x05ab19d77516414f7333a8fd52cc1f49ff8eafa9",
          "topics": [
            "0xddf252ad1be2c89b69c2b068fc378daa952ba7f163c4a11628f55a4df523b3ef",
            "0x0000000000000000000000000000000000000000000000000000000000000000",
            "0x0000000000000000000000001f53aa5d3b5743bd0d41884124bc07f4d7682fc1"
          ],
          "data": "0x000000000000000000000000000000000000000000000000000000003b9aca00",
          "blockHash": "0xee1d17b9d0c6336ea9046761eb95d5120c2d91715b4512f0e498c9556b6e5ec0",
          "blockNumber": "0x1c39c4c",
          "blockTimestamp": "0x689a9778",
          "transactionHash": "0x0e12747ab207188b6f81a6cfbf1090b673f0fe0d74e321b5f1adf643868caa4c",
          "transactionIndex": "0xe",
          "logIndex": "0x93",
          "removed": false
        }
      ],
      "logsBloom": "0x00000000000000000000000000000000000000000000000000000000800000000000000000000000000000000000000000000000000000000002000000000000000000000000000000000008000000000000000000000000000000000000000000000000020000000000000000000800000000400000000000000010000000000000000000000000000000000000000000000000000000000000000000000000000000000000000000000000000100000000000000000000000000000000000000000002000000000000000000000000000000000000000000800000000020000000000000000000000000000000000000000000000000000000000000000000",
      "type": "0x2",
      "transactionHash": "0x0e12747ab207188b6f81a6cfbf1090b673f0fe0d74e321b5f1adf643868caa4c",
      "transactionIndex": "0xe",
      "blockHash": "0xee1d17b9d0c6336ea9046761eb95d5120c2d91715b4512f0e498c9556b6e5ec0",
      "blockNumber": "0x1c39c4c",
      "gasUsed": "0xc777",
      "effectiveGasPrice": "0xc5466",
      "from": "0x1f53aa5d3b5743bd0d41884124bc07f4d7682fc1",
      "to": "0x05ab19d77516414f7333a8fd52cc1f49ff8eafa9",
      "contractAddress": null,
      "l1BaseFeeScalar": "0x44d",
      "l1BlobBaseFee": "0x1",
      "l1BlobBaseFeeScalar": "0xa118b",
      "l1Fee": "0x55",
      "l1GasPrice": "0xb",
      "l1GasUsed": "0x640"
    },
    {
      "status": "0x1",
      "cumulativeGasUsed": "0x37a715",
      "logs": [
        {
          "address": "0x05ab19d77516414f7333a8fd52cc1f49ff8eafa9",
          "topics": [
            "0xddf252ad1be2c89b69c2b068fc378daa952ba7f163c4a11628f55a4df523b3ef",
            "0x0000000000000000000000001f53aa5d3b5743bd0d41884124bc07f4d7682fc1",
            "0x000000000000000000000000740907524ebd6a481a81ce76b5115a4cddb80099"
          ],
          "data": "0x000000000000000000000000000000000000000000000000000000003b9aca00",
          "blockHash": "0xee1d17b9d0c6336ea9046761eb95d5120c2d91715b4512f0e498c9556b6e5ec0",
          "blockNumber": "0x1c39c4c",
          "blockTimestamp": "0x689a9778",
          "transactionHash": "0x581a02fb3da73efff1613b6b31435946e3b4ad5ed46ea2a0e507551b84260c0b",
          "transactionIndex": "0xf",
          "logIndex": "0x94",
          "removed": false
        }
      ],
      "logsBloom": "0x00000000000000000000000000800000000000000000000000000000800000000000000000000000000000000000000000000000000000000002000000000000000000000000000000000008000000000000000000000000000000000000000000000000004000000000000000000000000000400000000000000010000000000000000000000000000000000000000000000000000000000000000000000000000000000000000000000000000100000000000000000000000000000000000000000002000000000000000000000000000000000000004000800000000000000000000000000000000000000000000000000000000000000000000000000000",
      "type": "0x2",
      "transactionHash": "0x581a02fb3da73efff1613b6b31435946e3b4ad5ed46ea2a0e507551b84260c0b",
      "transactionIndex": "0xf",
      "blockHash": "0xee1d17b9d0c6336ea9046761eb95d5120c2d91715b4512f0e498c9556b6e5ec0",
      "blockNumber": "0x1c39c4c",
      "gasUsed": "0xb4d6",
      "effectiveGasPrice": "0xc5466",
      "from": "0x1f53aa5d3b5743bd0d41884124bc07f4d7682fc1",
      "to": "0x05ab19d77516414f7333a8fd52cc1f49ff8eafa9",
      "contractAddress": null,
      "l1BaseFeeScalar": "0x44d",
      "l1BlobBaseFee": "0x1",
      "l1BlobBaseFeeScalar": "0xa118b",
      "l1Fee": "0x55",
      "l1GasPrice": "0xb",
      "l1GasUsed": "0x640"
    }
  ],
  "libraries": [],
  "pending": [],
  "returns": {},
  "timestamp": 1754961783,
  "chain": 84532,
  "commit": "b13628f"
}