{
  "transactions": [
    {
      "hash": "0xf11436861035dfbf11838af8b73a1b19dacca2eee01f9aceaf4dc814497494ad",
      "transactionType": "CALL",
      "contractName": "MockERC20",
      "contractAddress": "0xe44b2870efcd6bb3c9305808012621f438e9636d",
      "function": "mint(address,uint256)",
      "arguments": [
        "0x1f53aA5d3b5743BD0D41884124bC07f4d7682Fc1",
        "100000000"
      ],
      "transaction": {
        "from": "0x1f53aa5d3b5743bd0d41884124bc07f4d7682fc1",
        "to": "0xe44b2870efcd6bb3c9305808012621f438e9636d",
        "gas": "0x11382",
        "value": "0x0",
        "input": "0x40c10f190000000000000000000000001f53aa5d3b5743bd0d41884124bc07f4d7682fc10000000000000000000000000000000000000000000000000000000005f5e100",
        "nonce": "0x18",
        "chainId": "0x14a34"
      },
      "additionalContracts": [],
      "isFixedGasLimit": false
    },
    {
      "hash": "0x2f132dd8e4aa87514f468bdf7bbbf0c85dbf524a0673b79d29f88efc5d9f7098",
      "transactionType": "CALL",
      "contractName": "MockERC20",
      "contractAddress": "0xe44b2870efcd6bb3c9305808012621f438e9636d",
      "function": "approve(address,uint256)",
      "arguments": [
        "0x73E27097221d4d9D5893a83350dC7A967b46fab7",
        "100000000"
      ],
      "transaction": {
        "from": "0x1f53aa5d3b5743bd0d41884124bc07f4d7682fc1",
        "to": "0xe44b2870efcd6bb3c9305808012621f438e9636d",
        "gas": "0x10720",
        "value": "0x0",
        "input": "0x095ea7b300000000000000000000000073e27097221d4d9d5893a83350dc7a967b46fab70000000000000000000000000000000000000000000000000000000005f5e100",
        "nonce": "0x19",
        "chainId": "0x14a34"
      },
      "additionalContracts": [],
      "isFixedGasLimit": false
    },
    {
      "hash": "0x5c2474d7557aa7336a17732a2e4269d5575765463c062cbedd3480988403af4f",
      "transactionType": "CALL",
      "contractName": null,
      "contractAddress": "0x73e27097221d4d9d5893a83350dc7a967b46fab7",
      "function": "depositCollateral(address,uint256,address)",
      "arguments": [
        "0xe44b2870eFcd6Bb3C9305808012621f438e9636D",
        "100000000",
        "0x1f53aA5d3b5743BD0D41884124bC07f4d7682Fc1"
      ],
      "transaction": {
        "from": "0x1f53aa5d3b5743bd0d41884124bc07f4d7682fc1",
        "to": "0x73e27097221d4d9d5893a83350dc7a967b46fab7",
        "gas": "0x311c7",
        "value": "0x0",
        "input": "0x22425480000000000000000000000000e44b2870efcd6bb3c9305808012621f438e9636d0000000000000000000000000000000000000000000000000000000005f5e1000000000000000000000000001f53aa5d3b5743bd0d41884124bc07f4d7682fc1",
        "nonce": "0x1a",
        "chainId": "0x14a34"
      },
      "additionalContracts": [],
      "isFixedGasLimit": false
    },
    {
      "hash": "0x3765b29fb1095a0c23cfcedc2d9d08ac6fb59871625e7ea15b046c3ea43b9a26",
      "transactionType": "CALL",
      "contractName": null,
      "contractAddress": "0x73e27097221d4d9d5893a83350dc7a967b46fab7",
      "function": "queueRedemption(uint256,address)",
      "arguments": [
        "1000000000000000000",
        "0x1f53aA5d3b5743BD0D41884124bC07f4d7682Fc1"
      ],
      "transaction": {
        "from": "0x1f53aa5d3b5743bd0d41884124bc07f4d7682fc1",
        "to": "0x73e27097221d4d9d5893a83350dc7a967b46fab7",
        "gas": "0x66092",
        "value": "0x0",
        "input": "0x1917d7600000000000000000000000000000000000000000000000000de0b6b3a76400000000000000000000000000001f53aa5d3b5743bd0d41884124bc07f4d7682fc1",
        "nonce": "0x1b",
        "chainId": "0x14a34"
      },
      "additionalContracts": [],
      "isFixedGasLimit": false
    }
  ],
  "receipts": [
    {
      "status": "0x1",
      "cumulativeGasUsed": "0x9f8f1",
      "logs": [
        {
          "address": "0xe44b2870efcd6bb3c9305808012621f438e9636d",
          "topics": [
            "0xddf252ad1be2c89b69c2b068fc378daa952ba7f163c4a11628f55a4df523b3ef",
            "0x0000000000000000000000000000000000000000000000000000000000000000",
            "0x0000000000000000000000001f53aa5d3b5743bd0d41884124bc07f4d7682fc1"
          ],
          "data": "0x0000000000000000000000000000000000000000000000000000000005f5e100",
          "blockHash": "0x99974264d190919fa0cc44bc9cd6dc571697baf60bc2eb31775f65b7dcd5c4d5",
          "blockNumber": "0x1c39d54",
          "blockTimestamp": "0x689a9988",
          "transactionHash": "0xf11436861035dfbf11838af8b73a1b19dacca2eee01f9aceaf4dc814497494ad",
          "transactionIndex": "0x3",
          "logIndex": "0x7",
          "removed": false
        }
      ],
      "logsBloom": "0x00000000000000000000000000000000000000000000000000000000800000000000000000000000000000000000000000000000000000000002000000000000000000000000000000000008000000000000000000000000000000000000000000000000020000000000000000000800000000000000000000800010000000000000000000000010000000000000000000000000000000000000000000000000000000000000000000000000000000000000000000000000000000000000000000000022000000000000000000000000000000000000000000000000000020000000000000000000000000000000000000000000000000000000000000000000",
      "type": "0x2",
      "transactionHash": "0xf11436861035dfbf11838af8b73a1b19dacca2eee01f9aceaf4dc814497494ad",
      "transactionIndex": "0x3",
      "blockHash": "0x99974264d190919fa0cc44bc9cd6dc571697baf60bc2eb31775f65b7dcd5c4d5",
      "blockNumber": "0x1c39d54",
      "gasUsed": "0xc777",
      "effectiveGasPrice": "0xf427a",
      "from": "0x1f53aa5d3b5743bd0d41884124bc07f4d7682fc1",
      "to": "0xe44b2870efcd6bb3c9305808012621f438e9636d",
      "contractAddress": null,
      "l1BaseFeeScalar": "0x44d",
      "l1BlobBaseFee": "0x1",
      "l1BlobBaseFeeScalar": "0xa118b",
      "l1Fee": "0x7d",
      "l1GasPrice": "0x22",
      "l1GasUsed": "0x640"
    },
    {
      "status": "0x1",
      "cumulativeGasUsed": "0xaacdc",
      "logs": [
        {
          "address": "0xe44b2870efcd6bb3c9305808012621f438e9636d",
          "topics": [
            "0x8c5be1e5ebec7d5bd14f71427d1e84f3dd0314c0f7b2291e5b200ac8c7c3b925",
            "0x0000000000000000000000001f53aa5d3b5743bd0d41884124bc07f4d7682fc1",
            "0x00000000000000000000000073e27097221d4d9d5893a83350dc7a967b46fab7"
          ],
          "data": "0x0000000000000000000000000000000000000000000000000000000005f5e100",
          "blockHash": "0x99974264d190919fa0cc44bc9cd6dc571697baf60bc2eb31775f65b7dcd5c4d5",
          "blockNumber": "0x1c39d54",
          "blockTimestamp": "0x689a9988",
          "transactionHash": "0x2f132dd8e4aa87514f468bdf7bbbf0c85dbf524a0673b79d29f88efc5d9f7098",
          "transactionIndex": "0x4",
          "logIndex": "0x8",
          "removed": false
        }
      ],
      "logsBloom": "0x00000000000000000000000000000100000000000000000000000000800000000000000000000000000000000000000000000000000000000002000000200000000000000000000000000008000000000000000000000000000000000000000000000000000000000000000000000000000000000000000000800000002000000000000000000010000000000000000000000000000000000000000000000000020000000000000000000000000000000000000000000000000000000000000000020020000000000000000000000000000000000000000000000000000000000010000000000000000000000000000000000000000000000000000000000000",
      "type": "0x2",
      "transactionHash": "0x2f132dd8e4aa87514f468bdf7bbbf0c85dbf524a0673b79d29f88efc5d9f7098",
      "transactionIndex": "0x4",
      "blockHash": "0x99974264d190919fa0cc44bc9cd6dc571697baf60bc2eb31775f65b7dcd5c4d5",
      "blockNumber": "0x1c39d54",
      "gasUsed": "0xb3eb",
      "effectiveGasPrice": "0xf427a",
      "from": "0x1f53aa5d3b5743bd0d41884124bc07f4d7682fc1",
      "to": "0xe44b2870efcd6bb3c9305808012621f438e9636d",
      "contractAddress": null,
      "l1BaseFeeScalar": "0x44d",
      "l1BlobBaseFee": "0x1",
      "l1BlobBaseFeeScalar": "0xa118b",
      "l1Fee": "0x7d",
      "l1GasPrice": "0x22",
      "l1GasUsed": "0x640"
    },
    {
      "status": "0x1",
      "cumulativeGasUsed": "0xfadc2",
      "logs": [
        {
          "address": "0xe44b2870efcd6bb3c9305808012621f438e9636d",
          "topics": [
            "0xddf252ad1be2c89b69c2b068fc378daa952ba7f163c4a11628f55a4df523b3ef",
            "0x0000000000000000000000001f53aa5d3b5743bd0d41884124bc07f4d7682fc1",
            "0x000000000000000000000000740907524ebd6a481a81ce76b5115a4cddb80099"
          ],
          "data": "0x0000000000000000000000000000000000000000000000000000000005f5e100",
          "blockHash": "0xdfa77014ecac9f564f1e80b23ebc1c6dc648f8294064da7b169124ff8d8b4b78",
          "blockNumber": "0x1c39d54",
          "blockTimestamp": "0x689a9988",
          "transactionHash": "0x5c2474d7557aa7336a17732a2e4269d5575765463c062cbedd3480988403af4f",
          "transactionIndex": "0x6",
          "logIndex": "0xd",
          "removed": false
        },
        {
          "address": "0x73e27097221d4d9d5893a83350dc7a967b46fab7",
          "topics": [
            "0xddf252ad1be2c89b69c2b068fc378daa952ba7f163c4a11628f55a4df523b3ef",
            "0x0000000000000000000000000000000000000000000000000000000000000000",
            "0x0000000000000000000000001f53aa5d3b5743bd0d41884124bc07f4d7682fc1"
          ],
          "data": "0x0000000000000000000000000000000000000000000000000de0b6b3a7640000",
          "blockHash": "0xdfa77014ecac9f564f1e80b23ebc1c6dc648f8294064da7b169124ff8d8b4b78",
          "blockNumber": "0x1c39d54",
          "blockTimestamp": "0x689a9988",
          "transactionHash": "0x5c2474d7557aa7336a17732a2e4269d5575765463c062cbedd3480988403af4f",
          "transactionIndex": "0x6",
          "logIndex": "0xe",
          "removed": false
        },
        {
          "address": "0x73e27097221d4d9d5893a83350dc7a967b46fab7",
          "topics": [
            "0x5cc049a9dd19f9433d64bdb54e83782424e5d075e63ce9e0dab55fadde1ac10d",
            "0x0000000000000000000000001f53aa5d3b5743bd0d41884124bc07f4d7682fc1",
            "0x000000000000000000000000e44b2870efcd6bb3c9305808012621f438e9636d",
            "0x0000000000000000000000001f53aa5d3b5743bd0d41884124bc07f4d7682fc1"
          ],
          "data": "0x0000000000000000000000000000000000000000000000000000000005f5e1000000000000000000000000000000000000000000000000000de0b6b3a7640000",
          "blockHash": "0xdfa77014ecac9f564f1e80b23ebc1c6dc648f8294064da7b169124ff8d8b4b78",
          "blockNumber": "0x1c39d54",
          "blockTimestamp": "0x689a9988",
          "transactionHash": "0x5c2474d7557aa7336a17732a2e4269d5575765463c062cbedd3480988403af4f",
          "transactionIndex": "0x6",
          "logIndex": "0xf",
          "removed": false
        }
      ],
      "logsBloom": "0x00000200000000002000000000800000000000000000000000000000800000000000000000000000000000000000000000000000000000000002000000000000000000000000000000000008000000000000000000000000000000000000000000000000024000000000000000000800000000001000000000800010000000000000000000002010000000000000000000000000000000000000000000000000000000000000000000000000000000000000000000000000000000000000000000000022000000000000000000000000000000008000004000000000000020000000000000000000800000000000000000020010000200000000000000000000",
      "type": "0x2",
      "transactionHash": "0x5c2474d7557aa7336a17732a2e4269d5575765463c062cbedd3480988403af4f",
      "transactionIndex": "0x6",
      "blockHash": "0xdfa77014ecac9f564f1e80b23ebc1c6dc648f8294064da7b169124ff8d8b4b78",
      "blockNumber": "0x1c39d54",
      "gasUsed": "0x238e4",
      "effectiveGasPrice": "0xf427a",
      "from": "0x1f53aa5d3b5743bd0d41884124bc07f4d7682fc1",
      "to": "0x73e27097221d4d9d5893a83350dc7a967b46fab7",
      "contractAddress": null,
      "l1BaseFeeScalar": "0x44d",
      "l1BlobBaseFee": "0x1",
      "l1BlobBaseFeeScalar": "0xa118b",
      "l1Fee": "0x86",
      "l1GasPrice": "0x22",
      "l1GasUsed": "0x6b2"
    },
    {
      "status": "0x1",
      "cumulativeGasUsed": "0x140a0c",
      "logs": [
        {
          "address": "0x73e27097221d4d9d5893a83350dc7a967b46fab7",
          "topics": [
            "0xddf252ad1be2c89b69c2b068fc378daa952ba7f163c4a11628f55a4df523b3ef",
            "0x0000000000000000000000001f53aa5d3b5743bd0d41884124bc07f4d7682fc1",
            "0x00000000000000000000000022bc73098ce1ba2cae5431fb32051cb4fc0f9c52"
          ],
          "data": "0x0000000000000000000000000000000000000000000000000de0b6b3a7640000",
          "blockHash": "0xdfa77014ecac9f564f1e80b23ebc1c6dc648f8294064da7b169124ff8d8b4b78",
          "blockNumber": "0x1c39d54",
          "blockTimestamp": "0x689a9988",
          "transactionHash": "0x3765b29fb1095a0c23cfcedc2d9d08ac6fb59871625e7ea15b046c3ea43b9a26",
          "transactionIndex": "0x7",
          "logIndex": "0x10",
          "removed": false
        },
        {
          "address": "0x22bc73098ce1ba2cae5431fb32051cb4fc0f9c52",
          "topics": [
            "0xce5035abe505edc27e6228722793724566fc1696457a6733e2d3c21517f3b9f9",
            "0x0000000000000000000000000000000000000000000000000000000000000001",
            "0x0000000000000000000000001f53aa5d3b5743bd0d41884124bc07f4d7682fc1",
            "0x0000000000000000000000001f53aa5d3b5743bd0d41884124bc07f4d7682fc1"
          ],
          "data": "0x0000000000000000000000000000000000000000000000000de0b6b3a76400000000000000000000000000000000000000000000000000000000000005f5e10000000000000000000000000000000000000000000000000000000000689a9988",
          "blockHash": "0xdfa77014ecac9f564f1e80b23ebc1c6dc648f8294064da7b169124ff8d8b4b78",
          "blockNumber": "0x1c39d54",
          "blockTimestamp": "0x689a9988",
          "transactionHash": "0x3765b29fb1095a0c23cfcedc2d9d08ac6fb59871625e7ea15b046c3ea43b9a26",
          "transactionIndex": "0x7",
          "logIndex": "0x11",
          "removed": false
        },
        {
          "address": "0x73e27097221d4d9d5893a83350dc7a967b46fab7",
          "topics": [
            "0xbe2b7fda56f41e507f0289d4fb3a256ac84142b17e41505c5ef30c7700544ab5",
            "0x0000000000000000000000001f53aa5d3b5743bd0d41884124bc07f4d7682fc1",
            "0x0000000000000000000000001f53aa5d3b5743bd0d41884124bc07f4d7682fc1"
          ],
          "data": "0x0000000000000000000000000000000000000000000000000de0b6b3a76400000000000000000000000000000000000000000000000000000000000000000001",
          "blockHash": "0xdfa77014ecac9f564f1e80b23ebc1c6dc648f8294064da7b169124ff8d8b4b78",
          "blockNumber": "0x1c39d54",
          "blockTimestamp": "0x689a9988",
          "transactionHash": "0x3765b29fb1095a0c23cfcedc2d9d08ac6fb59871625e7ea15b046c3ea43b9a26",
          "transactionIndex": "0x7",
          "logIndex": "0x12",
          "removed": false
        }
      ],
      "logsBloom": "0x00000200000000020000000000000000000000000000000004000000800000000100000000000000000000000000000000000000000000000002000000040000000000000000000000000008000000000000000000040000000000000000000000000000010000000000000000000000000000000008000000000010000000000000000000002000000000802000000000000000000000000000000000000000000000000000000000000000000000100000000000000000000000000000000000000002000000000000000000000000000000010000000000000000000040000000000000002001000004000000000000000010000000000000000000000000",
      "type": "0x2",
      "transactionHash": "0x3765b29fb1095a0c23cfcedc2d9d08ac6fb59871625e7ea15b046c3ea43b9a26",
      "transactionIndex": "0x7",
      "blockHash": "0xdfa77014ecac9f564f1e80b23ebc1c6dc648f8294064da7b169124ff8d8b4b78",
      "blockNumber": "0x1c39d54",
      "gasUsed": "0x45c4a",
      "effectiveGasPrice": "0xf427a",
      "from": "0x1f53aa5d3b5743bd0d41884124bc07f4d7682fc1",
      "to": "0x73e27097221d4d9d5893a83350dc7a967b46fab7",
      "contractAddress": null,
      "l1BaseFeeScalar": "0x44d",
      "l1BlobBaseFee": "0x1",
      "l1BlobBaseFeeScalar": "0xa118b",
      "l1Fee": "0x7d",
      "l1GasPrice": "0x22",
      "l1GasUsed": "0x640"
    }
  ],
  "libraries": [],
  "pending": [],
  "returns": {},
  "timestamp": 1754962311,
  "chain": 84532,
  "commit": "b13628f"
}